{
  "_format": "hh-sol-artifact-1",
  "contractName": "Campaign",
  "sourceName": "contracts/Campaign.sol",
  "abi": [
    {
      "inputs": [
        {
          "internalType": "address",
          "name": "_tokenAddress",
          "type": "address"
        }
      ],
      "stateMutability": "nonpayable",
      "type": "constructor"
    },
    {
      "anonymous": false,
      "inputs": [
        {
          "indexed": true,
          "internalType": "address",
          "name": "campaignOwner",
          "type": "address"
        },
        {
          "components": [
            {
              "internalType": "bool",
              "name": "active",
              "type": "bool"
            },
            {
              "internalType": "bool",
              "name": "locked",
              "type": "bool"
            },
            {
              "internalType": "bool",
              "name": "collegeVerificationReceived",
              "type": "bool"
            },
            {
              "internalType": "address",
              "name": "college",
              "type": "address"
            },
            {
              "components": [
                {
                  "internalType": "bool",
                  "name": "studentApproval",
                  "type": "bool"
                },
                {
                  "internalType": "uint256",
                  "name": "amount",
                  "type": "uint256"
                }
              ],
              "internalType": "struct CampaignStorage.Installment",
              "name": "currentInstallment",
              "type": "tuple"
            },
            {
              "components": [
                {
                  "internalType": "uint256",
                  "name": "collegeSelectionDeadline",
                  "type": "uint256"
                },
                {
                  "internalType": "uint256",
                  "name": "collegeVerificationDeadline",
                  "type": "uint256"
                }
              ],
              "internalType": "struct CampaignStorage.Deadline",
              "name": "deadline",
              "type": "tuple"
            },
            {
              "internalType": "string",
              "name": "info",
              "type": "string"
            },
            {
              "internalType": "uint256",
              "name": "target",
              "type": "uint256"
            },
            {
              "internalType": "uint256",
              "name": "received",
              "type": "uint256"
            },
            {
              "internalType": "uint256",
              "name": "balance",
              "type": "uint256"
            }
          ],
          "indexed": false,
          "internalType": "struct CampaignStorage.Campaign",
          "name": "campaign",
          "type": "tuple"
        }
      ],
      "name": "CampaignCreation",
      "type": "event"
    },
    {
      "inputs": [
        {
          "internalType": "address",
          "name": "student",
          "type": "address"
        }
      ],
      "name": "cancel",
      "outputs": [],
      "stateMutability": "nonpayable",
      "type": "function"
    },
    {
      "inputs": [
        {
          "internalType": "address",
          "name": "student",
          "type": "address"
        },
        {
          "internalType": "uint256",
          "name": "amount",
          "type": "uint256"
        }
      ],
      "name": "fund",
      "outputs": [],
      "stateMutability": "nonpayable",
      "type": "function"
    },
    {
      "inputs": [
        {
          "internalType": "address",
          "name": "student",
          "type": "address"
        }
      ],
      "name": "getCampaign",
      "outputs": [
        {
          "components": [
            {
              "internalType": "bool",
              "name": "active",
              "type": "bool"
            },
            {
              "internalType": "bool",
              "name": "locked",
              "type": "bool"
            },
            {
              "internalType": "bool",
              "name": "collegeVerificationReceived",
              "type": "bool"
            },
            {
              "internalType": "address",
              "name": "college",
              "type": "address"
            },
            {
              "components": [
                {
                  "internalType": "bool",
                  "name": "studentApproval",
                  "type": "bool"
                },
                {
                  "internalType": "uint256",
                  "name": "amount",
                  "type": "uint256"
                }
              ],
              "internalType": "struct CampaignStorage.Installment",
              "name": "currentInstallment",
              "type": "tuple"
            },
            {
              "components": [
                {
                  "internalType": "uint256",
                  "name": "collegeSelectionDeadline",
                  "type": "uint256"
                },
                {
                  "internalType": "uint256",
                  "name": "collegeVerificationDeadline",
                  "type": "uint256"
                }
              ],
              "internalType": "struct CampaignStorage.Deadline",
              "name": "deadline",
              "type": "tuple"
            },
            {
              "internalType": "string",
              "name": "info",
              "type": "string"
            },
            {
              "internalType": "uint256",
              "name": "target",
              "type": "uint256"
            },
            {
              "internalType": "uint256",
              "name": "received",
              "type": "uint256"
            },
            {
              "internalType": "uint256",
              "name": "balance",
              "type": "uint256"
            }
          ],
          "internalType": "struct CampaignStorage.Campaign",
          "name": "",
          "type": "tuple"
        }
      ],
      "stateMutability": "view",
      "type": "function"
    },
    {
      "inputs": [
        {
          "internalType": "address",
          "name": "student",
          "type": "address"
        },
        {
          "internalType": "address",
          "name": "college",
          "type": "address"
        },
        {
          "internalType": "uint256",
          "name": "collegeVerificationDeadline",
          "type": "uint256"
        }
      ],
      "name": "setCollege",
      "outputs": [],
      "stateMutability": "nonpayable",
      "type": "function"
    },
    {
      "inputs": [
        {
          "internalType": "address",
          "name": "student",
          "type": "address"
        },
        {
          "internalType": "uint256",
          "name": "amount",
          "type": "uint256"
        }
      ],
      "name": "setInstallment",
      "outputs": [],
      "stateMutability": "nonpayable",
      "type": "function"
    },
    {
      "inputs": [
        {
          "internalType": "address",
          "name": "college",
          "type": "address"
        },
        {
          "internalType": "uint256",
          "name": "collegeSelectionDeadline",
          "type": "uint256"
        },
        {
          "internalType": "uint256",
          "name": "collegeVerificationDeadline",
          "type": "uint256"
        },
        {
          "internalType": "uint256",
          "name": "target",
          "type": "uint256"
        },
        {
          "internalType": "string",
          "name": "info",
          "type": "string"
        }
      ],
      "name": "start",
      "outputs": [
        {
          "internalType": "bytes32",
          "name": "",
          "type": "bytes32"
        }
      ],
      "stateMutability": "nonpayable",
      "type": "function"
    },
    {
      "inputs": [
        {
          "internalType": "address",
          "name": "student",
          "type": "address"
        }
      ],
      "name": "verify",
      "outputs": [],
      "stateMutability": "nonpayable",
      "type": "function"
    },
    {
      "inputs": [
        {
          "internalType": "address",
          "name": "student",
          "type": "address"
        }
      ],
      "name": "verifyInstallment",
      "outputs": [],
      "stateMutability": "nonpayable",
      "type": "function"
    },
    {
      "inputs": [
        {
          "internalType": "address",
          "name": "student",
          "type": "address"
        }
      ],
      "name": "withdrawFunds",
      "outputs": [],
      "stateMutability": "nonpayable",
      "type": "function"
    },
    {
      "inputs": [
        {
          "internalType": "address",
          "name": "student",
          "type": "address"
        },
        {
          "internalType": "uint256",
          "name": "amount",
          "type": "uint256"
        }
      ],
      "name": "withdrawInstallment",
      "outputs": [],
      "stateMutability": "nonpayable",
      "type": "function"
    }
  ],
  "bytecode": "0x608060405234801561001057600080fd5b5060405161106d38038061106d83398101604081905261002f91610054565b600280546001600160a01b0319166001600160a01b0392909216919091179055610082565b600060208284031215610065578081fd5b81516001600160a01b038116811461007b578182fd5b9392505050565b610fdc806100916000396000f3fe608060405234801561001057600080fd5b506004361061009e5760003560e01c8063731301cf11610066578063731301cf1461015c5780637b1837de14610185578063c2276fc114610198578063d3968f1a146101ab578063d94bc7bc146101cc57600080fd5b80632de742e7146100a35780634c33fe94146100b85780635618f9b8146100e857806363a9c3d71461013657806368742da614610149575b600080fd5b6100b66100b1366004610c89565b610203565b005b6100b66100c6366004610c34565b6001600160a01b03166000908152602081905260409020805461ffff19169055565b6100b66100f6366004610c4e565b6001600160a01b0392831660009081526020819052604090208054939092166301000000026301000000600160b81b031990931692909217815560040155565b6100b6610144366004610c34565b6102c0565b6100b6610157366004610c34565b61032c565b61016f61016a366004610c34565b6103f9565b60405161017c9190610e22565b60405180910390f35b6100b6610193366004610c89565b6105c9565b6100b66101a6366004610c89565b6106be565b6101be6101b9366004610cb2565b610721565b60405190815260200161017c565b6100b66101da366004610c34565b6001600160a01b031660009081526020819052604090206001908101805460ff19169091179055565b6001600160a01b038083166000908152602081905260409020548391630100000090910416331461024f5760405162461bcd60e51b815260040161024690610df4565b60405180910390fd5b6001600160a01b038316600090815260208190526040902060019081015460ff1615151461027c57600080fd5b6001600160a01b0383166000908152602081905260409020600801546102a29083610941565b506002546102bb906001600160a01b0316303385610972565b505050565b6001600160a01b03808216600090815260208190526040902054829163010000009091041633146103035760405162461bcd60e51b815260040161024690610df4565b506001600160a01b03166000908152602081905260409020805462ff0000191662010000179055565b6001600160a01b038116600090815260208190526040902054610100900460ff16156103c05760405162461bcd60e51b815260206004820152603860248201527f43616d706169676e206973206f6e676f696e6720736f206c6f636b656420616d60448201527f6f756e742063616e6e6f742062652077697468647261776e00000000000000006064820152608401610246565b3360008181526001602090815260408083206001600160a01b0386811685529252909120546002546103f6939216913091610972565b50565b61046c6040805161014081018252600080825260208083018290528284018290526060830182905283518085018552828152808201839052608084015283518085019094528184528301529060a08201908152602001606081526020016000815260200160008152602001600081525090565b6001600160a01b0380831660009081526020818152604091829020825161014081018452815460ff808216151583526101008204811615158386015262010000820481161515838701526301000000909104909516606082015283518085018552600183015490951615158552600282015485840152608081019490945282518084019093526003810154835260048101549183019190915260a083019190915260058101805460c08401919061052290610f3f565b80601f016020809104026020016040519081016040528092919081815260200182805461054e90610f3f565b801561059b5780601f106105705761010080835404028352916020019161059b565b820191906000526020600020905b81548152906001019060200180831161057e57829003601f168201915b5050505050815260200160068201548152602001600782015481526020016008820154815250509050919050565b6001600160a01b0382166000908152602081905260409020600601548111156106345760405162461bcd60e51b815260206004820181905260248201527f46756e64696e6720616d6f756e74206f76657273686f6f7473207461726765746044820152606401610246565b6001600160a01b03821660009081526020819052604090206007015461065a90826109d2565b506001600160a01b03821660009081526020819052604090206008015461068190826109d2565b503360008181526001602090815260408083206001600160a01b03878116855292529091208390556002546106ba929116903084610972565b5050565b6001600160a01b03808316600090815260208190526040902054839163010000009091041633146107015760405162461bcd60e51b815260040161024690610df4565b506001600160a01b03909116600090815260208190526040902060020155565b6000806040518060400160405280600015158152602001600081525090506000604051806040016040528088815260200187815250905060006040518061014001604052806001151581526020016001151581526020016000151581526020018a6001600160a01b03168152602001848152602001838152602001868152602001878152602001600081526020016000815250905080600080336001600160a01b03166001600160a01b0316815260200190815260200160002060008201518160000160006101000a81548160ff02191690831515021790555060208201518160000160016101000a81548160ff02191690831515021790555060408201518160000160026101000a81548160ff02191690831515021790555060608201518160000160036101000a8154816001600160a01b0302191690836001600160a01b0316021790555060808201518160010160008201518160000160006101000a81548160ff02191690831515021790555060208201518160010155505060a0820151816003016000820151816000015560208201518160010155505060c08201518160050190805190602001906108d8929190610b7f565b5060e0820151600682015561010082015160078201556101209091015160089091015560405133907fa3257690993225e68dd778d837dd8968834b42fe49192667221680e4862ae9a79061092d908490610e22565b60405180910390a250505095945050505050565b60008282111561096157634e487b7160e01b600052600160045260246000fd5b61096b8284610efc565b9392505050565b604080516001600160a01b0385811660248301528416604482015260648082018490528251808303909101815260849091019091526020810180516001600160e01b03166323b872dd60e01b1790526109cc9085906109ff565b50505050565b6000806109df8385610ee4565b90508381101561096b57634e487b7160e01b600052600160045260246000fd5b6001600160a01b0382163b610a565760405162461bcd60e51b815260206004820152601f60248201527f5361666545524332303a2063616c6c20746f206e6f6e2d636f6e7472616374006044820152606401610246565b600080836001600160a01b031683604051610a719190610dd8565b6000604051808303816000865af19150503d8060008114610aae576040519150601f19603f3d011682016040523d82523d6000602084013e610ab3565b606091505b509150915081610b055760405162461bcd60e51b815260206004820181905260248201527f5361666545524332303a206c6f772d6c6576656c2063616c6c206661696c65646044820152606401610246565b8051156109cc5780806020019051810190610b209190610d8c565b6109cc5760405162461bcd60e51b815260206004820152602a60248201527f5361666545524332303a204552433230206f7065726174696f6e20646964206e6044820152691bdd081cdd58d8d9595960b21b6064820152608401610246565b828054610b8b90610f3f565b90600052602060002090601f016020900481019282610bad5760008555610bf3565b82601f10610bc657805160ff1916838001178555610bf3565b82800160010185558215610bf3579182015b82811115610bf3578251825591602001919060010190610bd8565b50610bff929150610c03565b5090565b5b80821115610bff5760008155600101610c04565b80356001600160a01b0381168114610c2f57600080fd5b919050565b600060208284031215610c45578081fd5b61096b82610c18565b600080600060608486031215610c62578182fd5b610c6b84610c18565b9250610c7960208501610c18565b9150604084013590509250925092565b60008060408385031215610c9b578182fd5b610ca483610c18565b946020939093013593505050565b600080600080600060a08688031215610cc9578081fd5b610cd286610c18565b9450602086013593506040860135925060608601359150608086013567ffffffffffffffff80821115610d03578283fd5b818801915088601f830112610d16578283fd5b813581811115610d2857610d28610f90565b604051601f8201601f19908116603f01168101908382118183101715610d5057610d50610f90565b816040528281528b6020848701011115610d68578586fd5b82602086016020830137856020848301015280955050505050509295509295909350565b600060208284031215610d9d578081fd5b8151801515811461096b578182fd5b60008151808452610dc4816020860160208601610f13565b601f01601f19169290920160200192915050565b60008251610dea818460208701610f13565b9190910192915050565b6020808252601490820152734e6f742063616d706169676e20636f6c6c65676560601b604082015260600190565b60208152610e3560208201835115159052565b60006020830151610e4a604084018215159052565b50604083015180151560608401525060608301516001600160a01b03811660808401525060808301518051151560a0840152602081015160c08401525060a0830151805160e084015260208101516101008401525060c08301516101806101208181860152610ebd6101a0860184610dac565b60e08701516101408701526101008701516101608701529501519301929092525090919050565b60008219821115610ef757610ef7610f7a565b500190565b600082821015610f0e57610f0e610f7a565b500390565b60005b83811015610f2e578181015183820152602001610f16565b838111156109cc5750506000910152565b600181811c90821680610f5357607f821691505b60208210811415610f7457634e487b7160e01b600052602260045260246000fd5b50919050565b634e487b7160e01b600052601160045260246000fd5b634e487b7160e01b600052604160045260246000fdfea264697066735822122075170e42e3c6e4bd2646d8fa2b7ec7efca71b33ab00295255533c5ef59f4ecc164736f6c63430008040033",
  "linkReferences": {},
  "deployedLinkReferences": {}
}