{
  "_format": "hh-sol-artifact-1",
  "contractName": "Campaign",
  "sourceName": "contracts/Campaign.sol",
  "abi": [
    {
      "inputs": [
        {
          "internalType": "address",
          "name": "_tokenAddress",
          "type": "address"
        }
      ],
      "stateMutability": "nonpayable",
      "type": "constructor"
    },
    {
      "inputs": [
        {
          "internalType": "bytes32",
          "name": "campaignId",
          "type": "bytes32"
        }
      ],
      "name": "cancel",
      "outputs": [],
      "stateMutability": "nonpayable",
      "type": "function"
    },
    {
      "inputs": [
        {
          "internalType": "bytes32",
          "name": "campaignId",
          "type": "bytes32"
        }
      ],
      "name": "collegeSelectionDeadlineViolation",
      "outputs": [
        {
          "internalType": "bytes32",
          "name": "",
          "type": "bytes32"
        }
      ],
      "stateMutability": "nonpayable",
      "type": "function"
    },
    {
      "inputs": [
        {
          "internalType": "bytes32",
          "name": "campaignId",
          "type": "bytes32"
        }
      ],
      "name": "collegeVerificationDeadlineViolation",
      "outputs": [
        {
          "internalType": "bytes32",
          "name": "",
          "type": "bytes32"
        }
      ],
      "stateMutability": "nonpayable",
      "type": "function"
    },
    {
      "inputs": [
        {
          "internalType": "bytes32",
          "name": "campaignId",
          "type": "bytes32"
        },
        {
          "internalType": "uint256",
          "name": "amount",
          "type": "uint256"
        }
      ],
      "name": "fund",
      "outputs": [],
      "stateMutability": "nonpayable",
      "type": "function"
    },
    {
      "inputs": [
        {
          "internalType": "bytes32",
          "name": "campaignId",
          "type": "bytes32"
        },
        {
          "internalType": "address",
          "name": "college",
          "type": "address"
        },
        {
          "internalType": "uint256",
          "name": "collegeVerificationDeadline",
          "type": "uint256"
        }
      ],
      "name": "setCollege",
      "outputs": [],
      "stateMutability": "nonpayable",
      "type": "function"
    },
    {
      "inputs": [
        {
          "internalType": "bytes32",
          "name": "campaignId",
          "type": "bytes32"
        },
        {
          "internalType": "uint256",
          "name": "amount",
          "type": "uint256"
        }
      ],
      "name": "setInstallment",
      "outputs": [],
      "stateMutability": "nonpayable",
      "type": "function"
    },
    {
      "inputs": [
        {
          "internalType": "address",
          "name": "college",
          "type": "address"
        },
        {
          "internalType": "uint256",
          "name": "collegeSelectionDeadline",
          "type": "uint256"
        },
        {
          "internalType": "uint256",
          "name": "collegeVerificationDeadline",
          "type": "uint256"
        },
        {
          "internalType": "uint256",
          "name": "target",
          "type": "uint256"
        },
        {
          "internalType": "string",
          "name": "info",
          "type": "string"
        }
      ],
      "name": "start",
      "outputs": [
        {
          "internalType": "bytes32",
          "name": "",
          "type": "bytes32"
        }
      ],
      "stateMutability": "nonpayable",
      "type": "function"
    },
    {
      "inputs": [
        {
          "internalType": "bytes32",
          "name": "campaignId",
          "type": "bytes32"
        }
      ],
      "name": "verify",
      "outputs": [],
      "stateMutability": "nonpayable",
      "type": "function"
    },
    {
      "inputs": [
        {
          "internalType": "bytes32",
          "name": "campaignId",
          "type": "bytes32"
        }
      ],
      "name": "verifyInstallment",
      "outputs": [],
      "stateMutability": "nonpayable",
      "type": "function"
    },
    {
      "inputs": [
        {
          "internalType": "bytes32",
          "name": "campaignId",
          "type": "bytes32"
        }
      ],
      "name": "withdrawFunds",
      "outputs": [],
      "stateMutability": "nonpayable",
      "type": "function"
    },
    {
      "inputs": [
        {
          "internalType": "bytes32",
          "name": "campaignId",
          "type": "bytes32"
        },
        {
          "internalType": "uint256",
          "name": "amount",
          "type": "uint256"
        }
      ],
      "name": "withdrawInstallment",
      "outputs": [],
      "stateMutability": "nonpayable",
      "type": "function"
    }
  ],
  "bytecode": "0x608060405234801561001057600080fd5b50604051610e47380380610e4783398101604081905261002f91610054565b600480546001600160a01b0319166001600160a01b0392909216919091179055610082565b600060208284031215610065578081fd5b81516001600160a01b038116811461007b578182fd5b9392505050565b610db6806100916000396000f3fe608060405234801561001057600080fd5b50600436106100a95760003560e01c80639ce17aa8116100715780639ce17aa814610122578063bde90ce2146100fc578063c4d252f514610135578063d3968f1a14610148578063e46bbc9e1461015b578063fb453cad1461016e57600080fd5b80630ba1f4e1146100ae5780636e2b54ee146100c357806370df1b82146100d657806375e36616146100e957806384c01b7d146100fc575b600080fd5b6100c16100bc366004610c4c565b610181565b005b6100c16100d1366004610c00565b610227565b6100c16100e4366004610c4c565b6102ea565b6100c16100f7366004610c00565b61033f565b61011061010a366004610c00565b50600090565b60405190815260200160405180910390f35b6100c1610130366004610c00565b61039e565b6100c1610143366004610c00565b6103fc565b610110610156366004610b46565b610452565b6100c1610169366004610c4c565b610696565b6100c161017c366004610c18565b61076c565b6000828152600160205260409020548290630100000090046001600160a01b031633146101c95760405162461bcd60e51b81526004016101c090610cd2565b60405180910390fd5b60008381526001602081905260409091206002015460ff161515146101ed57600080fd5b6000838152600160205260409020600901546102099083610853565b50600454610222906001600160a01b0316303385610884565b505050565b600081815260016020526040902054610100900460ff16156102b15760405162461bcd60e51b815260206004820152603860248201527f43616d706169676e206973206f6e676f696e6720736f206c6f636b656420616d60448201527f6f756e742063616e6e6f742062652077697468647261776e000000000000000060648201526084016101c0565b3360008181526003602090815260408083208584529091529020546004546102e7926001600160a01b0390911691309190610884565b50565b6000828152600160205260409020548290630100000090046001600160a01b031633146103295760405162461bcd60e51b81526004016101c090610cd2565b5060009182526001602052604090912060030155565b6000818152600160205260409020548190630100000090046001600160a01b0316331461037e5760405162461bcd60e51b81526004016101c090610cd2565b506000908152600160205260409020805462ff0000191662010000179055565b6000818152600160208190526040909120015481906001600160a01b031633146103da5760405162461bcd60e51b81526004016101c090610ca6565b506000908152600160208190526040909120600201805460ff19169091179055565b6000818152600160208190526040909120015481906001600160a01b031633146104385760405162461bcd60e51b81526004016101c090610ca6565b506000908152600160205260409020805461ffff19169055565b60408051808201825260008082526020808301829052835180850185528981528082018990528451610160810186526001808252818401528086018490526001600160a01b038c16606082015233608082015260a0810185905260c081018290528551601f8801849004840281018401909652868652929490928592909160e08301918990899081908401838280828437600092018290525093855250505060208083018b905260408084018390526060938401839052825490513090941b6bffffffffffffffffffffffff191691840191909152603483015291925060540160408051808303601f19018152918152815160209283012060008054600180820183557f290decd9548b62a8d60345a988386fc84ba6bc95484008f6362f93160ef3e5639091018390558282528085529083902086518154888701519589015160608a015161ffff1990921692151561ff00191692909217610100961515969096029590951762010000600160b81b03191662010000911515919091026301000000600160b81b0319161763010000006001600160a01b0395861602178155608087015191810180546001600160a01b031916929094169190911790925560a0850151805160028401805460ff1916911515919091179055830151600383015560c085015180516004840155830151600583015560e08501518051919450859361066492600685019290910190610a91565b5061010082015160078201556101208201516008820155610140909101516009909101559a9950505050505050505050565b6000828152600160205260409020600701548111156106f75760405162461bcd60e51b815260206004820181905260248201527f46756e64696e6720616d6f756e74206f76657273686f6f74732074617267657460448201526064016101c0565b60008281526001602052604090206008015461071390826108e4565b5060008281526001602052604090206009015461073090826108e4565b503360008181526003602090815260408083208684529091529020829055600454610768916001600160a01b03909116903084610884565b5050565b6000838152600160208190526040909120015483906001600160a01b031633146107a85760405162461bcd60e51b81526004016101c090610ca6565b6001600160a01b03831660009081526002602052604090205460ff1615156001146108155760405162461bcd60e51b815260206004820152601b60248201527f436f6c6c656765206973206e6f7420766572696669656420796574000000000060448201526064016101c0565b5060009283526001602052604090922080546001600160a01b039092166301000000026301000000600160b81b031990921691909117815560050155565b60008282111561087357634e487b7160e01b600052600160045260246000fd5b61087d8284610d18565b9392505050565b604080516001600160a01b0385811660248301528416604482015260648082018490528251808303909101815260849091019091526020810180516001600160e01b03166323b872dd60e01b1790526108de908590610911565b50505050565b6000806108f18385610d00565b90508381101561087d57634e487b7160e01b600052600160045260246000fd5b6001600160a01b0382163b6109685760405162461bcd60e51b815260206004820152601f60248201527f5361666545524332303a2063616c6c20746f206e6f6e2d636f6e74726163740060448201526064016101c0565b600080836001600160a01b0316836040516109839190610c6d565b6000604051808303816000865af19150503d80600081146109c0576040519150601f19603f3d011682016040523d82523d6000602084013e6109c5565b606091505b509150915081610a175760405162461bcd60e51b815260206004820181905260248201527f5361666545524332303a206c6f772d6c6576656c2063616c6c206661696c656460448201526064016101c0565b8051156108de5780806020019051810190610a329190610be0565b6108de5760405162461bcd60e51b815260206004820152602a60248201527f5361666545524332303a204552433230206f7065726174696f6e20646964206e6044820152691bdd081cdd58d8d9595960b21b60648201526084016101c0565b828054610a9d90610d2f565b90600052602060002090601f016020900481019282610abf5760008555610b05565b82601f10610ad857805160ff1916838001178555610b05565b82800160010185558215610b05579182015b82811115610b05578251825591602001919060010190610aea565b50610b11929150610b15565b5090565b5b80821115610b115760008155600101610b16565b80356001600160a01b0381168114610b4157600080fd5b919050565b60008060008060008060a08789031215610b5e578182fd5b610b6787610b2a565b9550602087013594506040870135935060608701359250608087013567ffffffffffffffff80821115610b98578384fd5b818901915089601f830112610bab578384fd5b813581811115610bb9578485fd5b8a6020828501011115610bca578485fd5b6020830194508093505050509295509295509295565b600060208284031215610bf1578081fd5b8151801515811461087d578182fd5b600060208284031215610c11578081fd5b5035919050565b600080600060608486031215610c2c578283fd5b83359250610c3c60208501610b2a565b9150604084013590509250925092565b60008060408385031215610c5e578182fd5b50508035926020909101359150565b60008251815b81811015610c8d5760208186018101518583015201610c73565b81811115610c9b5782828501525b509190910192915050565b6020808252601290820152712737ba1031b0b6b830b4b3b71037bbb732b960711b604082015260600190565b6020808252601490820152734e6f742063616d706169676e20636f6c6c65676560601b604082015260600190565b60008219821115610d1357610d13610d6a565b500190565b600082821015610d2a57610d2a610d6a565b500390565b600181811c90821680610d4357607f821691505b60208210811415610d6457634e487b7160e01b600052602260045260246000fd5b50919050565b634e487b7160e01b600052601160045260246000fdfea26469706673582212203836ef869658345860565647f3e0de11862f2e8e87b43fa6ccfe1c7a421a830e64736f6c63430008040033",
  "linkReferences": {},
  "deployedLinkReferences": {}
}