{
  "_format": "hh-sol-artifact-1",
  "contractName": "Campaign",
  "sourceName": "contracts/Campaign.sol",
  "abi": [
    {
      "inputs": [
        {
          "internalType": "address",
          "name": "_tokenAddress",
          "type": "address"
        }
      ],
      "stateMutability": "nonpayable",
      "type": "constructor"
    },
    {
      "anonymous": false,
      "inputs": [
        {
          "indexed": false,
          "internalType": "bytes32",
          "name": "campaignId",
          "type": "bytes32"
        }
      ],
      "name": "CampaignCreation",
      "type": "event"
    },
    {
      "inputs": [
        {
          "internalType": "bytes32",
          "name": "campaignId",
          "type": "bytes32"
        }
      ],
      "name": "cancel",
      "outputs": [],
      "stateMutability": "nonpayable",
      "type": "function"
    },
    {
      "inputs": [
        {
          "internalType": "bytes32",
          "name": "campaignId",
          "type": "bytes32"
        }
      ],
      "name": "collegeSelectionDeadlineViolation",
      "outputs": [
        {
          "internalType": "bytes32",
          "name": "",
          "type": "bytes32"
        }
      ],
      "stateMutability": "nonpayable",
      "type": "function"
    },
    {
      "inputs": [
        {
          "internalType": "bytes32",
          "name": "campaignId",
          "type": "bytes32"
        }
      ],
      "name": "collegeVerificationDeadlineViolation",
      "outputs": [
        {
          "internalType": "bytes32",
          "name": "",
          "type": "bytes32"
        }
      ],
      "stateMutability": "nonpayable",
      "type": "function"
    },
    {
      "inputs": [
        {
          "internalType": "bytes32",
          "name": "campaignId",
          "type": "bytes32"
        },
        {
          "internalType": "uint256",
          "name": "amount",
          "type": "uint256"
        }
      ],
      "name": "fund",
      "outputs": [],
      "stateMutability": "nonpayable",
      "type": "function"
    },
    {
      "inputs": [],
      "name": "getAllCampaignIds",
      "outputs": [
        {
          "internalType": "bytes32[]",
          "name": "",
          "type": "bytes32[]"
        }
      ],
      "stateMutability": "view",
      "type": "function"
    },
    {
      "inputs": [
        {
          "internalType": "bytes32",
          "name": "campaignId",
          "type": "bytes32"
        }
      ],
      "name": "getCampaign",
      "outputs": [
        {
          "components": [
            {
              "internalType": "bool",
              "name": "active",
              "type": "bool"
            },
            {
              "internalType": "bool",
              "name": "locked",
              "type": "bool"
            },
            {
              "internalType": "bool",
              "name": "collegeVerificationReceived",
              "type": "bool"
            },
            {
              "internalType": "address",
              "name": "college",
              "type": "address"
            },
            {
              "internalType": "address",
              "name": "student",
              "type": "address"
            },
            {
              "components": [
                {
                  "internalType": "bool",
                  "name": "studentApproval",
                  "type": "bool"
                },
                {
                  "internalType": "uint256",
                  "name": "amount",
                  "type": "uint256"
                }
              ],
              "internalType": "struct CampaignStorage.Installment",
              "name": "currentInstallment",
              "type": "tuple"
            },
            {
              "components": [
                {
                  "internalType": "uint256",
                  "name": "collegeSelectionDeadline",
                  "type": "uint256"
                },
                {
                  "internalType": "uint256",
                  "name": "collegeVerificationDeadline",
                  "type": "uint256"
                }
              ],
              "internalType": "struct CampaignStorage.Deadline",
              "name": "deadline",
              "type": "tuple"
            },
            {
              "internalType": "string",
              "name": "info",
              "type": "string"
            },
            {
              "internalType": "uint256",
              "name": "target",
              "type": "uint256"
            },
            {
              "internalType": "uint256",
              "name": "received",
              "type": "uint256"
            },
            {
              "internalType": "uint256",
              "name": "balance",
              "type": "uint256"
            }
          ],
          "internalType": "struct CampaignStorage.Campaign",
          "name": "",
          "type": "tuple"
        }
      ],
      "stateMutability": "view",
      "type": "function"
    },
    {
      "inputs": [],
      "name": "health",
      "outputs": [
        {
          "internalType": "uint256",
          "name": "",
          "type": "uint256"
        }
      ],
      "stateMutability": "pure",
      "type": "function"
    },
    {
      "inputs": [
        {
          "internalType": "bytes32",
          "name": "campaignId",
          "type": "bytes32"
        },
        {
          "internalType": "address",
          "name": "college",
          "type": "address"
        },
        {
          "internalType": "uint256",
          "name": "collegeVerificationDeadline",
          "type": "uint256"
        }
      ],
      "name": "setCollege",
      "outputs": [],
      "stateMutability": "nonpayable",
      "type": "function"
    },
    {
      "inputs": [
        {
          "internalType": "bytes32",
          "name": "campaignId",
          "type": "bytes32"
        },
        {
          "internalType": "uint256",
          "name": "amount",
          "type": "uint256"
        }
      ],
      "name": "setInstallment",
      "outputs": [],
      "stateMutability": "nonpayable",
      "type": "function"
    },
    {
      "inputs": [
        {
          "internalType": "address",
          "name": "college",
          "type": "address"
        },
        {
          "internalType": "uint256",
          "name": "collegeSelectionDeadline",
          "type": "uint256"
        },
        {
          "internalType": "uint256",
          "name": "collegeVerificationDeadline",
          "type": "uint256"
        },
        {
          "internalType": "uint256",
          "name": "target",
          "type": "uint256"
        },
        {
          "internalType": "string",
          "name": "info",
          "type": "string"
        }
      ],
      "name": "start",
      "outputs": [
        {
          "internalType": "bytes32",
          "name": "",
          "type": "bytes32"
        }
      ],
      "stateMutability": "nonpayable",
      "type": "function"
    },
    {
      "inputs": [
        {
          "internalType": "bytes32",
          "name": "campaignId",
          "type": "bytes32"
        }
      ],
      "name": "verify",
      "outputs": [],
      "stateMutability": "nonpayable",
      "type": "function"
    },
    {
      "inputs": [
        {
          "internalType": "bytes32",
          "name": "campaignId",
          "type": "bytes32"
        }
      ],
      "name": "verifyInstallment",
      "outputs": [],
      "stateMutability": "nonpayable",
      "type": "function"
    },
    {
      "inputs": [
        {
          "internalType": "bytes32",
          "name": "campaignId",
          "type": "bytes32"
        }
      ],
      "name": "withdrawFunds",
      "outputs": [],
      "stateMutability": "nonpayable",
      "type": "function"
    },
    {
      "inputs": [
        {
          "internalType": "bytes32",
          "name": "campaignId",
          "type": "bytes32"
        },
        {
          "internalType": "uint256",
          "name": "amount",
          "type": "uint256"
        }
      ],
      "name": "withdrawInstallment",
      "outputs": [],
      "stateMutability": "nonpayable",
      "type": "function"
    }
  ],
  "bytecode": "0x608060405234801561001057600080fd5b5060405161135838038061135883398101604081905261002f91610054565b600480546001600160a01b0319166001600160a01b0392909216919091179055610082565b600060208284031215610065578081fd5b81516001600160a01b038116811461007b578182fd5b9392505050565b6112c7806100916000396000f3fe608060405234801561001057600080fd5b50600436106100ea5760003560e01c80639ce17aa81161008c578063cabe045211610066578063cabe0452146101a6578063d3968f1a146101c6578063e46bbc9e146101d9578063fb453cad146101ec57600080fd5b80639ce17aa814610180578063bde90ce21461016c578063c4d252f51461019357600080fd5b806370df1b82116100c857806370df1b821461013557806375e36616146101485780637633a22c1461015b57806384c01b7d1461016c57600080fd5b806304182496146100ef5780630ba1f4e11461010d5780636e2b54ee14610122575b600080fd5b6100f76101ff565b604051610104919061103e565b60405180910390f35b61012061011b366004610fd5565b610257565b005b610120610130366004610f89565b6102fd565b610120610143366004610fd5565b6103c0565b610120610156366004610f89565b610415565b60015b604051908152602001610104565b61015e61017a366004610f89565b50600090565b61012061018e366004610f89565b610474565b6101206101a1366004610f89565b6104d2565b6101b96101b4366004610f89565b610528565b60405161010491906110ef565b61015e6101d4366004610e8f565b61070a565b6101206101e7366004610fd5565b61097b565b6101206101fa366004610fa1565b610a51565b6060600080548060200260200160405190810160405280929190818152602001828054801561024d57602002820191906000526020600020905b815481526020019060010190808311610239575b5050505050905090565b6000828152600160205260409020548290630100000090046001600160a01b0316331461029f5760405162461bcd60e51b8152600401610296906110c1565b60405180910390fd5b60008381526001602081905260409091206002015460ff161515146102c357600080fd5b6000838152600160205260409020600901546102df9083610b38565b506004546102f8906001600160a01b0316303385610b69565b505050565b600081815260016020526040902054610100900460ff16156103875760405162461bcd60e51b815260206004820152603860248201527f43616d706169676e206973206f6e676f696e6720736f206c6f636b656420616d60448201527f6f756e742063616e6e6f742062652077697468647261776e00000000000000006064820152608401610296565b3360008181526003602090815260408083208584529091529020546004546103bd926001600160a01b0390911691309190610b69565b50565b6000828152600160205260409020548290630100000090046001600160a01b031633146103ff5760405162461bcd60e51b8152600401610296906110c1565b5060009182526001602052604090912060030155565b6000818152600160205260409020548190630100000090046001600160a01b031633146104545760405162461bcd60e51b8152600401610296906110c1565b506000908152600160205260409020805462ff0000191662010000179055565b6000818152600160208190526040909120015481906001600160a01b031633146104b05760405162461bcd60e51b815260040161029690611095565b506000908152600160208190526040909120600201805460ff19169091179055565b6000818152600160208190526040909120015481906001600160a01b0316331461050e5760405162461bcd60e51b815260040161029690611095565b506000908152600160205260409020805461ffff19169055565b6105a260408051610160810182526000808252602080830182905282840182905260608301829052608083018290528351808501855282815280820183905260a084015283518085019094528184528301529060c08201908152602001606081526020016000815260200160008152602001600081525090565b600082815260016020818152604092839020835161016081018552815460ff808216151583526101008204811615158386015262010000820481161515838801526001600160a01b03630100000090920482166060840152948301541660808201528451808601865260028301549094161515845260038201548484015260a081019390935283518085019094526004810154845260058101549184019190915260c082019290925260068201805491929160e0840191906106639061122a565b80601f016020809104026020016040519081016040528092919081815260200182805461068f9061122a565b80156106dc5780601f106106b1576101008083540402835291602001916106dc565b820191906000526020600020905b8154815290600101906020018083116106bf57829003601f168201915b5050505050815260200160078201548152602001600882015481526020016009820154815250509050919050565b600061072f60405180604001604052806002815260200161686960f01b815250610bc9565b60408051808201825260008082526020808301829052835180850185528981528082018990528451610160810186526001808252818401528086018490526001600160a01b038c16606082015233608082015260a0810185905260c0810182905260e0810188905261010081018990526101208101849052610140810184905283549551949591949093926107e592309290910160609290921b6bffffffffffffffffffffffff19168252601482015260340190565b60408051808303601f19018152918152815160209283012060008054600180820183557f290decd9548b62a8d60345a988386fc84ba6bc95484008f6362f93160ef3e5639091018390558282528085529083902086518154888701519589015160608a015161ffff1990921692151561ff00191692909217610100961515969096029590951762010000600160b81b03191662010000911515919091026301000000600160b81b0319161763010000006001600160a01b0395861602178155608087015191810180546001600160a01b031916929094169190911790925560a0850151805160028401805460ff1916911515919091179055830151600383015560c085015180516004840155830151600583015560e08501518051919450859361091792600685019290910190610dda565b5061010082015160078201556101208201516008820155610140909101516009909101556040518181527fd5fe3c8b5ee63045ef6cdda77e40ae34dc99fda2abd652e110d7f50b388b10619060200160405180910390a19998505050505050505050565b6000828152600160205260409020600701548111156109dc5760405162461bcd60e51b815260206004820181905260248201527f46756e64696e6720616d6f756e74206f76657273686f6f7473207461726765746044820152606401610296565b6000828152600160205260409020600801546109f89082610c0c565b50600082815260016020526040902060090154610a159082610c0c565b503360008181526003602090815260408083208684529091529020829055600454610a4d916001600160a01b03909116903084610b69565b5050565b6000838152600160208190526040909120015483906001600160a01b03163314610a8d5760405162461bcd60e51b815260040161029690611095565b6001600160a01b03831660009081526002602052604090205460ff161515600114610afa5760405162461bcd60e51b815260206004820152601b60248201527f436f6c6c656765206973206e6f742076657269666965642079657400000000006044820152606401610296565b5060009283526001602052604090922080546001600160a01b039092166301000000026301000000600160b81b031990921691909117815560050155565b600082821115610b5857634e487b7160e01b600052600160045260246000fd5b610b6282846111e7565b9392505050565b604080516001600160a01b0385811660248301528416604482015260648082018490528251808303909101815260849091019091526020810180516001600160e01b03166323b872dd60e01b179052610bc3908590610c39565b50505050565b6103bd81604051602401610bdd9190611082565b60408051601f198184030181529190526020810180516001600160e01b031663104c13eb60e21b179052610db9565b600080610c1983856111cf565b905083811015610b6257634e487b7160e01b600052600160045260246000fd5b6001600160a01b0382163b610c905760405162461bcd60e51b815260206004820152601f60248201527f5361666545524332303a2063616c6c20746f206e6f6e2d636f6e7472616374006044820152606401610296565b600080836001600160a01b031683604051610cab9190611022565b6000604051808303816000865af19150503d8060008114610ce8576040519150601f19603f3d011682016040523d82523d6000602084013e610ced565b606091505b509150915081610d3f5760405162461bcd60e51b815260206004820181905260248201527f5361666545524332303a206c6f772d6c6576656c2063616c6c206661696c65646044820152606401610296565b805115610bc35780806020019051810190610d5a9190610f69565b610bc35760405162461bcd60e51b815260206004820152602a60248201527f5361666545524332303a204552433230206f7065726174696f6e20646964206e6044820152691bdd081cdd58d8d9595960b21b6064820152608401610296565b80516a636f6e736f6c652e6c6f67602083016000808483855afa5050505050565b828054610de69061122a565b90600052602060002090601f016020900481019282610e085760008555610e4e565b82601f10610e2157805160ff1916838001178555610e4e565b82800160010185558215610e4e579182015b82811115610e4e578251825591602001919060010190610e33565b50610e5a929150610e5e565b5090565b5b80821115610e5a5760008155600101610e5f565b80356001600160a01b0381168114610e8a57600080fd5b919050565b600080600080600060a08688031215610ea6578081fd5b610eaf86610e73565b9450602086013593506040860135925060608601359150608086013567ffffffffffffffff80821115610ee0578283fd5b818801915088601f830112610ef3578283fd5b813581811115610f0557610f0561127b565b604051601f8201601f19908116603f01168101908382118183101715610f2d57610f2d61127b565b816040528281528b6020848701011115610f45578586fd5b82602086016020830137856020848301015280955050505050509295509295909350565b600060208284031215610f7a578081fd5b81518015158114610b62578182fd5b600060208284031215610f9a578081fd5b5035919050565b600080600060608486031215610fb5578283fd5b83359250610fc560208501610e73565b9150604084013590509250925092565b60008060408385031215610fe7578182fd5b50508035926020909101359150565b6000815180845261100e8160208601602086016111fe565b601f01601f19169290920160200192915050565b600082516110348184602087016111fe565b9190910192915050565b6020808252825182820181905260009190848201906040850190845b818110156110765783518352928401929184019160010161105a565b50909695505050505050565b602081526000610b626020830184610ff6565b6020808252601290820152712737ba1031b0b6b830b4b3b71037bbb732b960711b604082015260600190565b6020808252601490820152734e6f742063616d706169676e20636f6c6c65676560601b604082015260600190565b6020815261110260208201835115159052565b60006020830151611117604084018215159052565b50604083015180151560608401525060608301516001600160a01b03811660808401525060808301516001600160a01b03811660a08401525060a08301518051151560c0840152602081015160e08401525060c08301516101006111878185018380518252602090810151910152565b60e085015191506101a061014081818701526111a76101c0870185610ff6565b9287015161016087015261012087015161018087015290950151949093019390935250919050565b600082198211156111e2576111e2611265565b500190565b6000828210156111f9576111f9611265565b500390565b60005b83811015611219578181015183820152602001611201565b83811115610bc35750506000910152565b600181811c9082168061123e57607f821691505b6020821081141561125f57634e487b7160e01b600052602260045260246000fd5b50919050565b634e487b7160e01b600052601160045260246000fd5b634e487b7160e01b600052604160045260246000fdfea2646970667358221220ab283a88743e140e502387592a5dcf0cebbab79094efa7594e5d6ca7961221c964736f6c63430008040033",
  "linkReferences": {},
  "deployedLinkReferences": {}
}