{
  "_format": "hh-sol-artifact-1",
  "contractName": "Campaign",
  "sourceName": "contracts/Campaign.sol",
  "abi": [
    {
      "inputs": [
        {
          "internalType": "address",
          "name": "_tokenAddress",
          "type": "address"
        }
      ],
      "stateMutability": "nonpayable",
      "type": "constructor"
    },
    {
      "anonymous": false,
      "inputs": [
        {
          "indexed": true,
          "internalType": "address",
          "name": "campaignOwner",
          "type": "address"
        },
        {
          "components": [
            {
              "internalType": "bool",
              "name": "active",
              "type": "bool"
            },
            {
              "internalType": "bool",
              "name": "locked",
              "type": "bool"
            },
            {
              "internalType": "bool",
              "name": "pendingVerification",
              "type": "bool"
            },
            {
              "internalType": "address",
              "name": "college",
              "type": "address"
            },
            {
              "internalType": "uint256",
              "name": "installmentAmount",
              "type": "uint256"
            },
            {
              "components": [
                {
                  "internalType": "uint256",
                  "name": "collegeSelectionDeadline",
                  "type": "uint256"
                },
                {
                  "internalType": "uint256",
                  "name": "collegeVerificationDeadline",
                  "type": "uint256"
                }
              ],
              "internalType": "struct CampaignStorage.Deadline",
              "name": "deadline",
              "type": "tuple"
            },
            {
              "internalType": "string",
              "name": "info",
              "type": "string"
            },
            {
              "internalType": "uint256",
              "name": "target",
              "type": "uint256"
            },
            {
              "internalType": "uint256",
              "name": "received",
              "type": "uint256"
            },
            {
              "internalType": "uint256",
              "name": "balance",
              "type": "uint256"
            }
          ],
          "indexed": false,
          "internalType": "struct CampaignStorage.Campaign",
          "name": "campaign",
          "type": "tuple"
        }
      ],
      "name": "CampaignCreation",
      "type": "event"
    },
    {
      "inputs": [
        {
          "internalType": "address",
          "name": "student",
          "type": "address"
        }
      ],
      "name": "cancel",
      "outputs": [],
      "stateMutability": "nonpayable",
      "type": "function"
    },
    {
      "inputs": [
        {
          "internalType": "address",
          "name": "student",
          "type": "address"
        },
        {
          "internalType": "uint256",
          "name": "amount",
          "type": "uint256"
        }
      ],
      "name": "fund",
      "outputs": [],
      "stateMutability": "nonpayable",
      "type": "function"
    },
    {
      "inputs": [
        {
          "internalType": "address",
          "name": "student",
          "type": "address"
        }
      ],
      "name": "getCampaign",
      "outputs": [
        {
          "components": [
            {
              "internalType": "bool",
              "name": "active",
              "type": "bool"
            },
            {
              "internalType": "bool",
              "name": "locked",
              "type": "bool"
            },
            {
              "internalType": "bool",
              "name": "pendingVerification",
              "type": "bool"
            },
            {
              "internalType": "address",
              "name": "college",
              "type": "address"
            },
            {
              "internalType": "uint256",
              "name": "installmentAmount",
              "type": "uint256"
            },
            {
              "components": [
                {
                  "internalType": "uint256",
                  "name": "collegeSelectionDeadline",
                  "type": "uint256"
                },
                {
                  "internalType": "uint256",
                  "name": "collegeVerificationDeadline",
                  "type": "uint256"
                }
              ],
              "internalType": "struct CampaignStorage.Deadline",
              "name": "deadline",
              "type": "tuple"
            },
            {
              "internalType": "string",
              "name": "info",
              "type": "string"
            },
            {
              "internalType": "uint256",
              "name": "target",
              "type": "uint256"
            },
            {
              "internalType": "uint256",
              "name": "received",
              "type": "uint256"
            },
            {
              "internalType": "uint256",
              "name": "balance",
              "type": "uint256"
            }
          ],
          "internalType": "struct CampaignStorage.Campaign",
          "name": "",
          "type": "tuple"
        }
      ],
      "stateMutability": "view",
      "type": "function"
    },
    {
      "inputs": [
        {
          "internalType": "address",
          "name": "student",
          "type": "address"
        },
        {
          "internalType": "address",
          "name": "college",
          "type": "address"
        },
        {
          "internalType": "uint256",
          "name": "collegeVerificationDeadline",
          "type": "uint256"
        }
      ],
      "name": "setCollege",
      "outputs": [],
      "stateMutability": "nonpayable",
      "type": "function"
    },
    {
      "inputs": [
        {
          "internalType": "uint256",
          "name": "amount",
          "type": "uint256"
        }
      ],
      "name": "setInstallmentAmount",
      "outputs": [],
      "stateMutability": "nonpayable",
      "type": "function"
    },
    {
      "inputs": [
        {
          "internalType": "address",
          "name": "college",
          "type": "address"
        },
        {
          "internalType": "uint256",
          "name": "collegeSelectionDeadline",
          "type": "uint256"
        },
        {
          "internalType": "uint256",
          "name": "collegeVerificationDeadline",
          "type": "uint256"
        },
        {
          "internalType": "uint256",
          "name": "target",
          "type": "uint256"
        },
        {
          "internalType": "string",
          "name": "info",
          "type": "string"
        }
      ],
      "name": "start",
      "outputs": [
        {
          "internalType": "bytes32",
          "name": "",
          "type": "bytes32"
        }
      ],
      "stateMutability": "nonpayable",
      "type": "function"
    },
    {
      "inputs": [
        {
          "internalType": "address",
          "name": "student",
          "type": "address"
        }
      ],
      "name": "verify",
      "outputs": [],
      "stateMutability": "nonpayable",
      "type": "function"
    },
    {
      "inputs": [
        {
          "internalType": "address",
          "name": "student",
          "type": "address"
        }
      ],
      "name": "withdrawFunds",
      "outputs": [],
      "stateMutability": "nonpayable",
      "type": "function"
    },
    {
      "inputs": [
        {
          "internalType": "address",
          "name": "student",
          "type": "address"
        },
        {
          "internalType": "uint256",
          "name": "amount",
          "type": "uint256"
        }
      ],
      "name": "withdrawInstallment",
      "outputs": [],
      "stateMutability": "nonpayable",
      "type": "function"
    }
  ],
  "bytecode": "0x608060405234801561001057600080fd5b5060405161109638038061109683398101604081905261002f91610054565b600280546001600160a01b0319166001600160a01b0392909216919091179055610082565b600060208284031215610065578081fd5b81516001600160a01b038116811461007b578182fd5b9392505050565b611005806100916000396000f3fe608060405234801561001057600080fd5b50600436106100935760003560e01c806363a9c3d71161006657806363a9c3d71461013e57806368742da614610151578063731301cf146101645780637b1837de1461018d578063d3968f1a146101a057600080fd5b80632de742e7146100985780634c33fe94146100ad5780635618f9b8146100dd57806356758b7f1461012b575b600080fd5b6100ab6100a6366004610cd0565b6101c1565b005b6100ab6100bb366004610c74565b6001600160a01b03166000908152602081905260409020805461ffff19169055565b6100ab6100eb366004610c95565b6001600160a01b0392831660009081526020819052604090208054939092166301000000026301000000600160b81b031990931692909217815560030155565b6100ab610139366004610df3565b6103b6565b6100ab61014c366004610c74565b61045b565b6100ab61015f366004610c74565b6104e9565b610177610172366004610c74565b6105b6565b6040516101849190610e53565b60405180910390f35b6100ab61019b366004610cd0565b61075c565b6101b36101ae366004610cf9565b61086b565b604051908152602001610184565b6001600160a01b03808316600090815260208190526040902054839163010000009091041633146102305760405162461bcd60e51b81526020600482015260146024820152734e6f742063616d706169676e20636f6c6c65676560601b60448201526064015b60405180910390fd5b6001600160a01b0383166000908152602081905260409020600101548211156102b25760405162461bcd60e51b815260206004820152602e60248201527f5769746864726177616c20616d6f756e7420686967686572207468616e20646960448201526d1cd89d5c9cd95908185b5bdd5b9d60921b6064820152608401610227565b6001600160a01b03831660009081526020819052604090206007015482111561032b5760405162461bcd60e51b815260206004820152602560248201527f5769746864726177616c20616d6f756e7420686967686572207468616e2062616044820152646c616e636560d81b6064820152608401610227565b6001600160a01b038316600090815260208190526040902060070154610352908390610f25565b6001600160a01b0384166000908152602081905260409020600781019190915560010154610381908390610f25565b6001600160a01b038085166000908152602081905260409020600101919091556002546103b191163033856109df565b505050565b336000908152602081905260409020600701548111156104275760405162461bcd60e51b815260206004820152602660248201527f496e7374616c6c6d656e7420616d6f756e7420686967686572207468616e2062604482015265616c616e636560d01b6064820152608401610227565b33600090815260208190526040902060010154610445908290610f0d565b3360009081526020819052604090206001015550565b6001600160a01b03808216600090815260208190526040902054829163010000009091041633146104c55760405162461bcd60e51b81526020600482015260146024820152734e6f742063616d706169676e20636f6c6c65676560601b6044820152606401610227565b506001600160a01b03166000908152602081905260409020805462ff000019169055565b6001600160a01b038116600090815260208190526040902054610100900460ff161561057d5760405162461bcd60e51b815260206004820152603860248201527f43616d706169676e206973206f6e676f696e6720736f206c6f636b656420616d60448201527f6f756e742063616e6e6f742062652077697468647261776e00000000000000006064820152608401610227565b3360008181526001602090815260408083206001600160a01b0386811685529252909120546002546105b39392169130916109df565b50565b61061b604080516101408101825260008082526020808301829052828401829052606083018290526080830182905283518085019094528184528301529060a08201908152602001606081526020016000815260200160008152602001600081525090565b6001600160a01b0380831660009081526020818152604091829020825161014081018452815460ff8082161515835261010082048116151583860152620100008204161515828601526301000000900490941660608501526001810154608085015282518084019093526002810154835260038101549183019190915260a083019190915260048101805460c0840191906106b590610f68565b80601f01602080910402602001604051908101604052809291908181526020018280546106e190610f68565b801561072e5780601f106107035761010080835404028352916020019161072e565b820191906000526020600020905b81548152906001019060200180831161071157829003601f168201915b5050505050815260200160058201548152602001600682015481526020016007820154815250509050919050565b6001600160a01b0382166000908152602081905260409020600501548111156107c75760405162461bcd60e51b815260206004820181905260248201527f46756e64696e6720616d6f756e74206f76657273686f6f7473207461726765746044820152606401610227565b6001600160a01b0382166000908152602081905260409020600601546107ee908290610f0d565b6001600160a01b038316600090815260208190526040902060068101919091556007015461081d908290610f0d565b6001600160a01b03808416600081815260208181526040808320600701959095553380835260018252858320938352929052929092208390556002546108679291169030846109df565b5050565b6040805180820182528581526020808201869052825161014081018452600180825281830181815260008387018181526001600160a01b038d8116606087019081526080870184815260a088018a815260c089018d815260e08a018f9052610100808b018890526101208b01889052338852878c529c87208a51815499519751955161ffff19909a1690151561ff00191617961515909d029590951762010000600160b81b03191662010000931515939093026301000000600160b81b0319169290921763010000009690931695909502919091178955925193880193909355905180516002880155840151600387015590518051919592938493926109779260048501920190610bbf565b5060e0820151600582015561010082015160068201556101209091015160079091015560405133907fb89c545b49f9f104618ae9a31484956b5a2c66c41c25fef191588a9f8ff321f8906109cc908490610e53565b60405180910390a2505095945050505050565b604080516001600160a01b0385811660248301528416604482015260648082018490528251808303909101815260849091019091526020810180516001600160e01b03166323b872dd60e01b179052610a39908590610a3f565b50505050565b6001600160a01b0382163b610a965760405162461bcd60e51b815260206004820152601f60248201527f5361666545524332303a2063616c6c20746f206e6f6e2d636f6e7472616374006044820152606401610227565b600080836001600160a01b031683604051610ab19190610e37565b6000604051808303816000865af19150503d8060008114610aee576040519150601f19603f3d011682016040523d82523d6000602084013e610af3565b606091505b509150915081610b455760405162461bcd60e51b815260206004820181905260248201527f5361666545524332303a206c6f772d6c6576656c2063616c6c206661696c65646044820152606401610227565b805115610a395780806020019051810190610b609190610dd3565b610a395760405162461bcd60e51b815260206004820152602a60248201527f5361666545524332303a204552433230206f7065726174696f6e20646964206e6044820152691bdd081cdd58d8d9595960b21b6064820152608401610227565b828054610bcb90610f68565b90600052602060002090601f016020900481019282610bed5760008555610c33565b82601f10610c0657805160ff1916838001178555610c33565b82800160010185558215610c33579182015b82811115610c33578251825591602001919060010190610c18565b50610c3f929150610c43565b5090565b5b80821115610c3f5760008155600101610c44565b80356001600160a01b0381168114610c6f57600080fd5b919050565b600060208284031215610c85578081fd5b610c8e82610c58565b9392505050565b600080600060608486031215610ca9578182fd5b610cb284610c58565b9250610cc060208501610c58565b9150604084013590509250925092565b60008060408385031215610ce2578182fd5b610ceb83610c58565b946020939093013593505050565b600080600080600060a08688031215610d10578081fd5b610d1986610c58565b9450602086013593506040860135925060608601359150608086013567ffffffffffffffff80821115610d4a578283fd5b818801915088601f830112610d5d578283fd5b813581811115610d6f57610d6f610fb9565b604051601f8201601f19908116603f01168101908382118183101715610d9757610d97610fb9565b816040528281528b6020848701011115610daf578586fd5b82602086016020830137856020848301015280955050505050509295509295909350565b600060208284031215610de4578081fd5b81518015158114610c8e578182fd5b600060208284031215610e04578081fd5b5035919050565b60008151808452610e23816020860160208601610f3c565b601f01601f19169290920160200192915050565b60008251610e49818460208701610f3c565b9190910192915050565b60208152610e6660208201835115159052565b60006020830151610e7b604084018215159052565b50604083015180151560608401525060608301516001600160a01b038116608084015250608083015160a083015260a0830151610ec560c084018280518252602090810151910152565b5060c08301516101606101008181860152610ee4610180860184610e0b565b60e087015161012087810191909152918701516101408701529501519301929092525090919050565b60008219821115610f2057610f20610fa3565b500190565b600082821015610f3757610f37610fa3565b500390565b60005b83811015610f57578181015183820152602001610f3f565b83811115610a395750506000910152565b600181811c90821680610f7c57607f821691505b60208210811415610f9d57634e487b7160e01b600052602260045260246000fd5b50919050565b634e487b7160e01b600052601160045260246000fd5b634e487b7160e01b600052604160045260246000fdfea2646970667358221220fb4cdc92acc7c3460e85a1bed0ed4e1431c45ad012d6fd924d1d5ddd37e5ff2864736f6c63430008040033",
  "linkReferences": {},
  "deployedLinkReferences": {}
}