{
  "_format": "hh-sol-artifact-1",
  "contractName": "FMDToken",
  "sourceName": "contracts/FMDToken.sol",
  "abi": [
    {
      "inputs": [],
      "stateMutability": "nonpayable",
      "type": "constructor"
    },
    {
      "anonymous": false,
      "inputs": [
        {
          "indexed": true,
          "internalType": "address",
          "name": "owner",
          "type": "address"
        },
        {
          "indexed": true,
          "internalType": "address",
          "name": "spender",
          "type": "address"
        },
        {
          "indexed": false,
          "internalType": "uint256",
          "name": "value",
          "type": "uint256"
        }
      ],
      "name": "Approval",
      "type": "event"
    },
    {
      "anonymous": false,
      "inputs": [
        {
          "indexed": true,
          "internalType": "address",
          "name": "from",
          "type": "address"
        },
        {
          "indexed": true,
          "internalType": "address",
          "name": "to",
          "type": "address"
        },
        {
          "indexed": false,
          "internalType": "uint256",
          "name": "value",
          "type": "uint256"
        }
      ],
      "name": "Transfer",
      "type": "event"
    },
    {
      "inputs": [
        {
          "internalType": "address",
          "name": "owner",
          "type": "address"
        },
        {
          "internalType": "address",
          "name": "spender",
          "type": "address"
        }
      ],
      "name": "allowance",
      "outputs": [
        {
          "internalType": "uint256",
          "name": "",
          "type": "uint256"
        }
      ],
      "stateMutability": "view",
      "type": "function"
    },
    {
      "inputs": [
        {
          "internalType": "address",
          "name": "",
          "type": "address"
        }
      ],
      "name": "alreadyMinted",
      "outputs": [
        {
          "internalType": "bool",
          "name": "",
          "type": "bool"
        }
      ],
      "stateMutability": "view",
      "type": "function"
    },
    {
      "inputs": [
        {
          "internalType": "address",
          "name": "spender",
          "type": "address"
        },
        {
          "internalType": "uint256",
          "name": "amount",
          "type": "uint256"
        }
      ],
      "name": "approve",
      "outputs": [
        {
          "internalType": "bool",
          "name": "",
          "type": "bool"
        }
      ],
      "stateMutability": "nonpayable",
      "type": "function"
    },
    {
      "inputs": [
        {
          "internalType": "address",
          "name": "account",
          "type": "address"
        }
      ],
      "name": "balanceOf",
      "outputs": [
        {
          "internalType": "uint256",
          "name": "",
          "type": "uint256"
        }
      ],
      "stateMutability": "view",
      "type": "function"
    },
    {
      "inputs": [],
      "name": "decimals",
      "outputs": [
        {
          "internalType": "uint8",
          "name": "",
          "type": "uint8"
        }
      ],
      "stateMutability": "view",
      "type": "function"
    },
    {
      "inputs": [
        {
          "internalType": "address",
          "name": "spender",
          "type": "address"
        },
        {
          "internalType": "uint256",
          "name": "subtractedValue",
          "type": "uint256"
        }
      ],
      "name": "decreaseAllowance",
      "outputs": [
        {
          "internalType": "bool",
          "name": "",
          "type": "bool"
        }
      ],
      "stateMutability": "nonpayable",
      "type": "function"
    },
    {
      "inputs": [],
      "name": "hasAlreadyMinted",
      "outputs": [
        {
          "internalType": "bool",
          "name": "",
          "type": "bool"
        }
      ],
      "stateMutability": "view",
      "type": "function"
    },
    {
      "inputs": [
        {
          "internalType": "address",
          "name": "spender",
          "type": "address"
        },
        {
          "internalType": "uint256",
          "name": "addedValue",
          "type": "uint256"
        }
      ],
      "name": "increaseAllowance",
      "outputs": [
        {
          "internalType": "bool",
          "name": "",
          "type": "bool"
        }
      ],
      "stateMutability": "nonpayable",
      "type": "function"
    },
    {
      "inputs": [],
      "name": "mintOnlyOnceAtWill",
      "outputs": [],
      "stateMutability": "nonpayable",
      "type": "function"
    },
    {
      "inputs": [],
      "name": "name",
      "outputs": [
        {
          "internalType": "string",
          "name": "",
          "type": "string"
        }
      ],
      "stateMutability": "view",
      "type": "function"
    },
    {
      "inputs": [],
      "name": "symbol",
      "outputs": [
        {
          "internalType": "string",
          "name": "",
          "type": "string"
        }
      ],
      "stateMutability": "view",
      "type": "function"
    },
    {
      "inputs": [],
      "name": "totalSupply",
      "outputs": [
        {
          "internalType": "uint256",
          "name": "",
          "type": "uint256"
        }
      ],
      "stateMutability": "view",
      "type": "function"
    },
    {
      "inputs": [
        {
          "internalType": "address",
          "name": "recipient",
          "type": "address"
        },
        {
          "internalType": "uint256",
          "name": "amount",
          "type": "uint256"
        }
      ],
      "name": "transfer",
      "outputs": [
        {
          "internalType": "bool",
          "name": "",
          "type": "bool"
        }
      ],
      "stateMutability": "nonpayable",
      "type": "function"
    },
    {
      "inputs": [
        {
          "internalType": "address",
          "name": "sender",
          "type": "address"
        },
        {
          "internalType": "address",
          "name": "recipient",
          "type": "address"
        },
        {
          "internalType": "uint256",
          "name": "amount",
          "type": "uint256"
        }
      ],
      "name": "transferFrom",
      "outputs": [
        {
          "internalType": "bool",
          "name": "",
          "type": "bool"
        }
      ],
      "stateMutability": "nonpayable",
      "type": "function"
    }
  ],
  "bytecode": "0x60806040523480156200001157600080fd5b50604080518082018252601481527f46756e64204d792044656772656520546f6b656e0000000000000000000000006020808301918252835180850190945260088452672326a22a37b5b2b760c11b9084015281519192916200007791600391620001a9565b5080516200008d906004906020840190620001a9565b5050600580546001600160a01b03191633908117909155620000bb915069d3c21bcecceda1000000620000c1565b620002b1565b6001600160a01b0382166200011c5760405162461bcd60e51b815260206004820152601f60248201527f45524332303a206d696e7420746f20746865207a65726f206164647265737300604482015260640160405180910390fd5b80600260008282546200013091906200024f565b90915550506001600160a01b038216600090815260208190526040812080548392906200015f9084906200024f565b90915550506040518181526001600160a01b038316906000907fddf252ad1be2c89b69c2b068fc378daa952ba7f163c4a11628f55a4df523b3ef9060200160405180910390a35050565b828054620001b79062000274565b90600052602060002090601f016020900481019282620001db576000855562000226565b82601f10620001f657805160ff191683800117855562000226565b8280016001018555821562000226579182015b828111156200022657825182559160200191906001019062000209565b506200023492915062000238565b5090565b5b8082111562000234576000815560010162000239565b600082198211156200026f57634e487b7160e01b81526011600452602481fd5b500190565b600181811c908216806200028957607f821691505b60208210811415620002ab57634e487b7160e01b600052602260045260246000fd5b50919050565b61096280620002c16000396000f3fe608060405234801561001057600080fd5b50600436106100ea5760003560e01c8063395093511161008c57806395d89b411161006657806395d89b41146101e5578063a457c2d7146101ed578063a9059cbb14610200578063dd62ed3e1461021357600080fd5b8063395093511461019157806370a08231146101a457806372e699e9146101cd57600080fd5b80630ffb878d116100c85780630ffb878d1461015357806318160ddd1461015d57806323b872dd1461016f578063313ce5671461018257600080fd5b806306fdde03146100ef578063095ea7b31461010d5780630a398b8814610130575b600080fd5b6100f761024c565b604051610104919061087a565b60405180910390f35b61012061011b366004610851565b6102de565b6040519015158152602001610104565b61012061013e3660046107c3565b60066020526000908152604090205460ff1681565b61015b6102f4565b005b6002545b604051908152602001610104565b61012061017d366004610816565b6103ab565b60405160128152602001610104565b61012061019f366004610851565b6103cd565b6101616101b23660046107c3565b6001600160a01b031660009081526020819052604090205490565b3360009081526006602052604090205460ff16610120565b6100f7610409565b6101206101fb366004610851565b610418565b61012061020e366004610851565b6104a7565b6101616102213660046107e4565b6001600160a01b03918216600090815260016020908152604080832093909416825291909152205490565b60606003805461025b906108f1565b80601f0160208091040260200160405190810160405280929190818152602001828054610287906108f1565b80156102d45780601f106102a9576101008083540402835291602001916102d4565b820191906000526020600020905b8154815290600101906020018083116102b757829003601f168201915b5050505050905090565b60006102eb3384846104b4565b50600192915050565b3360009081526006602052604090205460ff161561036e5760405162461bcd60e51b815260206004820152602c60248201527f416c7265616479206d696e74656420746f6b656e73206f6e63652066726f6d2060448201526b74686973206164647265737360a01b60648201526084015b60405180910390fd5b60055461038e906001600160a01b031633683635c9adc5dea000006103ab565b50336000908152600660205260409020805460ff19166001179055565b60006103b88484846105d8565b6103c38433846104b4565b5060019392505050565b3360008181526001602090815260408083206001600160a01b038716845290915281205490916102eb9185906104049086906108cd565b6104b4565b60606004805461025b906108f1565b3360009081526001602090815260408083206001600160a01b03861684529091528120548281101561049a5760405162461bcd60e51b815260206004820152602560248201527f45524332303a2064656372656173656420616c6c6f77616e63652062656c6f77604482015264207a65726f60d81b6064820152608401610365565b6103c333858584036104b4565b60006102eb3384846105d8565b6001600160a01b0383166105165760405162461bcd60e51b8152602060048201526024808201527f45524332303a20617070726f76652066726f6d20746865207a65726f206164646044820152637265737360e01b6064820152608401610365565b6001600160a01b0382166105775760405162461bcd60e51b815260206004820152602260248201527f45524332303a20617070726f766520746f20746865207a65726f206164647265604482015261737360f01b6064820152608401610365565b6001600160a01b0383811660008181526001602090815260408083209487168084529482529182902085905590518481527f8c5be1e5ebec7d5bd14f71427d1e84f3dd0314c0f7b2291e5b200ac8c7c3b925910160405180910390a3505050565b6001600160a01b03831661063c5760405162461bcd60e51b815260206004820152602560248201527f45524332303a207472616e736665722066726f6d20746865207a65726f206164604482015264647265737360d81b6064820152608401610365565b6001600160a01b03821661069e5760405162461bcd60e51b815260206004820152602360248201527f45524332303a207472616e7366657220746f20746865207a65726f206164647260448201526265737360e81b6064820152608401610365565b6001600160a01b038316600090815260208190526040902054818110156107165760405162461bcd60e51b815260206004820152602660248201527f45524332303a207472616e7366657220616d6f756e7420657863656564732062604482015265616c616e636560d01b6064820152608401610365565b6001600160a01b0380851660009081526020819052604080822085850390559185168152908120805484929061074d9084906108cd565b92505081905550826001600160a01b0316846001600160a01b03167fddf252ad1be2c89b69c2b068fc378daa952ba7f163c4a11628f55a4df523b3ef8460405161079991815260200190565b60405180910390a350505050565b80356001600160a01b03811681146107be57600080fd5b919050565b6000602082840312156107d4578081fd5b6107dd826107a7565b9392505050565b600080604083850312156107f6578081fd5b6107ff836107a7565b915061080d602084016107a7565b90509250929050565b60008060006060848603121561082a578081fd5b610833846107a7565b9250610841602085016107a7565b9150604084013590509250925092565b60008060408385031215610863578182fd5b61086c836107a7565b946020939093013593505050565b6000602080835283518082850152825b818110156108a65785810183015185820160400152820161088a565b818111156108b75783604083870101525b50601f01601f1916929092016040019392505050565b600082198211156108ec57634e487b7160e01b81526011600452602481fd5b500190565b600181811c9082168061090557607f821691505b6020821081141561092657634e487b7160e01b600052602260045260246000fd5b5091905056fea2646970667358221220385d6b60e3e67a2bde9d95ba13a83bc09f9ceb312c35460352ad513f53beaea364736f6c63430008040033",
  "linkReferences": {},
  "deployedLinkReferences": {}
}